S00B000074616C6B2E7333373D
S3150800000000040020456E0008CF6E0008D16E000877
S31508000010D36E0008D56E0008D76E000800000000F1
S31508000020000000000000000000000000D96E000873
S31508000030DB6E000800000000DD6E0008E16E0008B7
S31508000040A76E0008AB6E0008E56E0008AF6E0008E4
S31508000050E96E0008ED6E0008B36E0008B76E00087A
S31508000060F16E0008F56E0008F96E0008FD6E0008CE
S31508000070BB6E0008BF6E0008C36E0008C76E000896
S31508000080CB6E000810B5624C6249802204F110005C
S3150800009000F0DEF804F1340104F1100000F0E4F990
S315080000A000F05AFA00F09FF8A07000F055FA00F038
S315080000B04BF8E07010BD10B5554C606810B10128BA
S315080000C00CD02AE004F1100000F028F900F037F807
S315080000D0442100F035F86068401C1DE004F110006A
S315080000E000F01CF900F02BF8BE2100F029F804F105
S315080000F0100000F09DF9207004F1100000F098F946
S315080001006070217841EA002064214843C11000EB61
S3150800011011700011A0600020606000F01DFA00F068
S3150800012013F8E070A078FF2808D100F015FABDE8AA
S31508000130104001460FF2E80000F032BA10BDCC219B
S3150800014004F1100000F05BB904F13C0300223249C7
S3150800015000F5FA6000F014BB1FB52D4CA06800EB43
S31508000160C000052190FBF1F0642190FBF1F16422B7
S3150800017002FB110301F120020FF2B80100A800F0FA
S31508000180D3FB0021002000F0F9FCE068411C05289B
S31508000190E16015D8DFE800F0030507090B0F16A084
S315080001A006E016A004E016A002E016A000E016A0DD
S315080001B000F06CFC04E015A000F068FC0020E0608C
S315080001C000A800F063FC00F0C7F900F00CF8A07076
S315080001D0E078FF2806D100F0BFF901460FF25C006F
S315080001E000F0DEF91FBD04F1440300220B4900F5B7
S315080001F07A7000F0C5BA000030463D0031463D0031
S3150800020032463D0033463D0034463D0035463D0006
S315080002100004002000B80040B70000085901000893
S3150800022054454D502074696D6572206F757420258C
S315080002306C0A000025642E25640000004C43442007
S3150800024074696D6572204F555420256C0A000000AC
S315080002507CB5044604208DF804000E461546009524
S3150800026000A9304600F0DCFCA582002126600122A8
S31508000270EBB253B1666002FA01F303EA05069E4241
S315080002800DD0491C0829F6D313E0331D636001F12C
S31508000290080302FA03F303EA05069E4206D188001C
S315080002A00F22890002FA01F1A16002E0491C08291F
S315080002B0EDD30421A26881401140E160052101FACD
S315080002C000F0A16808402061204600F0BFF873BD21
S315080002D000B583B0818A0091042104E000B583B09B
S315080002E0818A009105218DF8041000A9006800F0A4
S315080002F097FC07BD80B5818A006800F0C9FCC0B2CA
S3150800030002BD818A006800F0CABC818A006800F0D4
S31508000310C8BC000072B6704762B6704710B504468E
S31508000320FFF7F8FF00F082F8FFF7F6FF052000F068
S315080003303AFDFFF7EFFF00F060F800F041F8FFF72D
S31508000340EBFF4FF4FA7000F02EFDFFF7E3FF00F025
S315080003506DF8502000F027FD2046FFF7CBFF441E1E
S31508000360A441FFF7D9FF4FF4D27000F01CFDE00F4F
S3150800037010BD10B50446C8070FD5FFF7CBFF00F030
S315080003803CF800F01DF80A2000F00DFD2046FFF7A6
S31508000390B8FFFFF7C1FF37200EE0FFF7BBFF00F0FD
S315080003A02CF800F00DF8412000F0FDFC2046FFF780
S315080003B0A8FFFFF7B1FF0520BDE8104000F0F3BC29
S315080003C020468BE710B50446FFF7A4FF00F015F8A2
S315080003D0FFF7F6FF032000F0E6FC00F027F80A20F6
S315080003E000F0E1FC2046FFF785FF0446FFF794FF7F
S315080003F0352000F0D8FC204610BD204685E770B5AC
S3150800040004460D46012615EA060118BF01212046B5
S31508000410FFF7AFFF7606360EF5D1FFF77BFF00F044
S3150800042005F8FFF7EAFFBDE8704075E720464FE795
S3150800043070B50446002501262046FFF7C3FF00B124
S3150800044035437606360EF7D1E8B270BD00218177BE
S3150800045080F82010C1770022072100E0491E0B18FA
S3150800046000299A75FAD170472DE9F0470446012606
S3150800047094F820000027012500288946B8464FD160
S315080004802046FFF74BFF20B9A07784F82000E077D5
S3150800049053E0F0212046FFF7B2FF2046FFF792FF10
S315080004A082462046FFF78EFFBAF1010F08BF0128E2
S315080004B02AD0824508EB040105D0BAF1010F10D104
S315080004C0887D28430FE0A07FF6B2864237D2887D22
S315080004D02840012834DA3746092F4FF0000AB8BFFA
S315080004E0E777887DA843887551462046FFF741FF80
S315080004F0761C6806050E04D108F101005FFA80F83B
S315080005000125B8F1080FC8DBF6B2412E08DBA7773C
S31508000510A07F10B9012084F820000120A17D21B90F
S315080005200020A07784F82000E07700210A19927D40
S3150800053001F80920491C0829F8DBBDE8F087CAD16B
S315080005404FF0010ABCE7AA07BE07D207DC07DE0799
S31508000550E2073C08F00800800C480168406840EA59
S3150800056001400B490A7832B10A4A1268904202D110
S3150800057009484068704700220A70704707490720F3
S3150800058008600120044908707047000010600040A8
S31508000590BC120020C41200200814002014A0004039
S315080005A00EB400B582B003A90091024600AB012142
S315080005B0034878440A3000F019FC06BC5DF810FBC5
S315080005C04D690000F0B583B00820009001208DF831
S315080005D0040000A9AB4C204600F022FB1020009036
S315080005E000A9204600F01CFB0022A74BA74CA84DEB
S315080005F0A849A948002616541E27561C96FBF7F745
S315080006004FF01E0C0CFB176656540027A34E06EB3C
S31508000610820CCCF8087006F1840745F8227000278A
S3150800062044F8227043F82270521C1E2AE2DBFF228D
S315080006304A7772700021B1700A4600EB8103DA62CC
S315080006400B18491C0A2983F82020F6DB3270F7BDFF
S315080006507047F8B58B4C0821204600F020FB8F4DDB
S315080006608D4E8F4F0020E870E878811991F8201098
S31508000670012903D106EB8000C06A8047E878401C50
S31508000680E870C0B20A28EFDB6878FF283CD0FFF78D
S3150800069063FF697857F8212082422ED2EFF3118042
S315080006A0602181F3118869787A4A2971C0B28B5C16
S315080006B06B70EE238B542978491E297080F31188B4
S315080006C0FFF74AFF297957F82120801A6F4A42F81E
S315080006D02100744850F8210005EB81018968884794
S315080006E0297900208855FFF737FF297957F82120FF
S315080006F0801A654A42F82100C6E7FF2904D0D5F8D2
S315080007008000401CC5F880002046BDE8F44008215A
S3150800071000F0C7BAF8B5614B5C78FF2C05D1BDE887
S31508000720F2400FF28410FFF73BBF594D024655F8C9
S3150800073022608E420AD055F824200FF284100B4608
S31508000740214601B0BDE8F040FFF72ABF1978524D9F
S31508000750504E491EA242197003D1905D587007E0A9
S315080007603C46A75DFF2F08D0B842F9D1905DA05549
S31508000770EE20905500205055F1BD481C1870F1BD6B
S315080007802DE9F047454D6E7880460C4691469A46C7
S3150800079000F04EF80746524639460FF25010FFF75A
S315080007A0FFFEFF2F08BFFF2029D028783A4A394B89
S315080007B0401C287001213A4840F82780B95405EBB7
S315080007C087018C60374941F82790314941F827A0BD
S315080007D069780A46FF2A03D050F82220904503D2AA
S315080007E0F9546F700AE00E46F15C0A46FF2A03D0F8
S315080007F050F822204245F6D3F954F7543846BDE856
S31508000800F0870021244A8B1893F820301BB1491C25
S31508000810C9B20A29F7DB0A2908DA02EB81038A1822
S31508000820D862012082F8200008467047FF207047EA
S3150800083080B500201849435C13B90323435402BD0D
S31508000840401CC0B21E28F6DB144801780FF2B4002B
S31508000850FFF7A6FEFF2002BD2DE9F04100240FF2A6
S31508000860BC050D4E0B4FDFF8288058F82430E25DA2
S31508000870A15D2846FFF794FE641C0A2CF5DBBDE84B
S31508000880F081000000B4004044120020CC11002082
S3150800089054110020BC1000206810002070060020AB
S315080008A0F00F0020DC1000204552524F52204445DC
S315080008B04C4554494E4720544F203235350A0000DE
S315080008C04552524F522044454C4554494E4720778D
S315080008D0726F6E67206E616D652025642C25732006
S315080008E0287265713D2573290A0000005343485F45
S315080008F0544F5F5345543D2025642C257320230A05
S31508000900000000004E4F2054494D454F5554532082
S315080009104C454654203D2025640A00002025642FB6
S3150800092025642C2F25730A000CB41CB5044604A8AC
S3150800093001900A46009401AB00A90748784418308C
S3150800094000F054FA009A0021117000285CBF009844
S31508000950001B16BC5DF80CFB4F03000080B5002099
S3150800096000F0CDFC012000F0CAFCA548002141702A
S315080009708170C170FD218181FA2181610221417155
S3150800098000218171C171FF2101720021417201218B
S3150800099081720021017040F2DC5141616FF0010162
S315080009A001616421017100F05BFD00F0BFFDFFF7F6
S315080009B009FE002000F0DCFD00F0E6FD00F012FE66
S315080009C000F05EFE00F0D0FF01F0E8F901F09AFAB7
S315080009D001F078FBBDE80140FFF754BB70B504464B
S315080009E0884D284601F098FC64260821284601F01F
S315080009F0C5FC012804D000F0B9F8F6D100F03DF89E
S31508000A0000227C21284601F091FC642600F03AF881
S31508000A10012804D000F0AAF8F8D100F02EF8002139
S31508000A20284601F092FC642600F02CF8012804D030
S31508000A3000F09CF8F8D100F020F82146284601F08D
S31508000A4084FC642400F01EF8012805D02046441EC4
S31508000A500028F7D100F011F8284601F062FC64245A
S31508000A600821284601F08AFC012805D02046441EA4
S31508000A700028F5D100F001F870BD63480168491CEB
S31508000A80016070470221284601F078BCF8B5064691
S31508000A905C4C204601F040FC64275B4D082120464B
S31508000AA001F06CFC012804D000F058F8F6D100F0EB
S31508000AB059F800227C21204601F038FC1CE0402130
S31508000AC0204601F042FC642700F054F8012804D0BF
S31508000AD000F044F8F8D100F045F82046317801F0E6
S31508000AE034FC642700F046F8012804D000F036F8F4
S31508000AF0F8D100F037F8761C3078F8B1707800280D
S31508000B00DDD0C021204601F020FC642700F032F831
S31508000B10012804D000F022F8F8D100F023F8204686
S31508000B20317801F012FC642700F024F80128D8D0A7
S31508000B3000F014F8F8D100F015F8D2E7204601F0D5
S31508000B40F0FB64260821204601F018FC012804D091
S31508000B5000F00CF8F6D100F005F8F1BD3846471E4E
S31508000B60002870472868401C286070473046461E93
S31508000B70002870470221204601F000BC00EB8110D6
S31508000B8040F08000C0B229E780B500F06AFCFFF7A4
S31508000B905FFD01F0FBFB01F00FF9002000F0AFFB51
S31508000BA0BDE80240012000F0AABBF8B5FFF7ECFF4C
S31508000BB0164C174D174E184F38782A280CDB01208B
S31508000BC03070002038702878401C2870C0B23A2847
S31508000BD002DB002030702870FFF7BEFC0F49884200
S31508000BE024BF01202070FFF734FDE5E710B5044C5B
S31508000BF0207A00F020FD00206072FF20207210BDD0
S31508000C00AC0400203CC0004038090020EB0F00204F
S31508000C10E90F0020EA0F0020E80F0020005C2605F7
S31508000C20F0B5D1F800C00B79002201240F251CF07D
S31508000C300F0F03F00F0312D0076804FA02F606EA4C
S31508000C400C0EB64507D1960005FA06FE27EA0E07EA
S31508000C5003FA06F63743521C042AEED307600968DE
S31508000C60102914D347680022161D04FA06F606EA68
S31508000C70010CB44507D1960005FA06FC27EA0C07CD
S31508000C8003FA06F63743521C042AEDD34760F0BD33
S31508000C9080680022084218BF012210467047016189
S31508000CA07047416170470268531C036011707047B2
S31508000CB010B5474C002001F00DFD40F68C21884206
S31508000CC02068B4BF40F0080020F00800206010BD7E
S31508000CD010B504463F48018882B000F05FF89DF8D9
S31508000CE000109DF801003C4AFF2902BFFF28042096
S31508000CF00021002C1ABF801C012300231370C0B2E8
S31508000D00364A13680828A8BF072023F4607343EA05
S31508000D10C010106008291068A8BF0721C00841EA5A
S31508000D20C000106013BD00B52D48018883B000F0DF
S31508000D3035F8BDF800004FF6FF7188420EBF4FF434
S31508000D40E1600A2190FBF1F0ADF800002248007836
S31508000D5008B32048018802237F2201A801F0E6FC97
S31508000D609DF80500BDF80030FF2808BF0420811C47
S31508000D70C9B20829A8BF0721C1F12F0202EBD27216
S31508000D80C0F12F00521000FB0320C1F12F01B0FB68
S31508000D90F1F0ADF80000BDF800000EBD02237F2279
S31508000DA000A801F0C3BC0F490F4B0A681B68DB0794
S31508000DB058BF4008032809DB4B6D43F001034B6518
S31508000DC00B689B1A1B031B0B8342F9D37047000061
S31508000DD000BC00404C050008A6150020180000407D
S31508000DE04E050008382000401C4000402DE9F04F11
S31508000DF093B0804602AE002092461D460291B0612D
S31508000E000DF130090AE01AF8011B0298C047029052
S31508000E10002800F0AA81B069401CB0619AF8000069
S31508000E2008B9B069A3E12528EDD10020F06030614A
S31508000E30706101E040F001001AF8011F2029F9D07D
S31508000E4023290DD02B2904D02D2906D030290AD0E4
S31508000E500CE040F0020080B2EEE740F00400FAE74A
S31508000E6040F00800F7E740F01000F4E72A290FD110
S31508000E702968296051F8042B2960002A326204D5B2
S31508000E80514240F00400316280B20AF1010A15E0CD
S31508000E90002131620CE0316A6FF00043994205D0B7
S31508000EA001EB810302EB4301303931620AF1010A91
S31508000EB09AF80020A2F130010A29ECD39AF800101A
S31508000EC02E2903D04FF0FF31F16122E01AF8011FF5
S31508000ED02A2908D1296829600AF1010A51F8042B40
S31508000EE02960F26115E00021F1610CE0F1696FF00B
S31508000EF00043994205D001EB810302EB43013039E7
S31508000F00F1610AF1010A9AF80020A2F130010A29D2
S31508000F10ECD3B0840FF2A4309AF8001001F03AFC32
S31508000F2008B11AF8010B8DF82E009DF82E006828D6
S31508000F3004BF9AF80000682804D162208DF82E00B4
S31508000F400AF1010A0CA8B0601AF8014B252C13D037
S31508000F50582C38D0632C00F09080642C18BF692C6C
S31508000F6065D06F2C2FD0702C23D0732C0AD0752CFB
S31508000F7018BF782C27D08AE00120F06025208DF84C
S31508000F8030008FE02868286050F8044B28607460A9
S31508000F90F769002F04D5204601F008FC074606E04D
S31508000FA03A460021204601F01DFC00B1071B3761B7
S31508000FB078E02868286050F8041B286001910CA87E
S31508000FC07060782155E09DF82E206C2A0DD0712A84
S31508000FD018BF6A2A09D12868C01D20F007032B60AC
S31508000FE0D3E9000108332B6004E02968296051F829
S31508000FF0040B2960682A019002D101A8008803E041
S31508001000622A02D101A80078019096F82400000708
S315080010102AD5019840B344F02000782824D13020FE
S315080010208DF8300089F801400220F0601CE09DF838
S315080010302E00294600F09EF80028019004D5F06895
S31508001040411CF1602D210DE0B08C810704D5F068B4
S31508001050411CF1602B2105E0C00705D5F068411C4D
S31508001060F160202100F80910F1680CA808187060D2
S31508001070214601A800F0A4F814E00120F0602868D1
S31508001080286050F8041B28608DF830100AE001200B
S31508001090F06025208DF8300024B1F068411CF1601D
S315080010A000F80940306AF168401A7169401A3169D6
S315080010B0441A96F8240040070FD420208DF8000023
S315080010C0002708E0012300AA01A9404600F0DFF83E
S315080010D000284AD17F1CA742F4DBF7680DF1300BD4
S315080010E00AE01BF8011B0298C047029000283CD072
S315080010F0B069401CB0617F1E002FF2D130208DF8F8
S3150800110000004FF0000B776908E0012300AA01A947
S31508001110404600F0BCF840BB0BF1010BBB45F4DBC5
S315080011203769D6F804B009E01BF8011B0298C047D6
S315080011300290D0B1B069401CB0617F1E002FF3D178
S3150800114096F8240040077FF569AE20208DF8000048
S3150800115000E07F1CA742BFF661AE012300AA01A9E1
S31508001160404600F094F80028F3D04FF0FF3013B053
S31508001170BDE8F08F622815D068280CD06C2818BFF7
S31508001180742816D07A2814D10A680A6052F8040B13
S315080011900A60002170470A680A6052F8040B0A6060
S315080011A000B20BE00A680A6052F8040B0A6040B203
S315080011B004E00A680A6052F8040B0A60C11770470F
S315080011C0F0B4C2686F2908BF082405D041F020038F
S315080011D0782B14BF0A24102418230668642918BF1C
S315080011E06929374602D1002E48BF7F425FB9056A92
S315080011F04DB9082C27D190F82810090723D5302196
S315080012001723D1751FE0B7FBF4F604FB16773037C2
S315080012105D1EFFB23A2FA4BFA1F1510C6744AF542B
S315080012202B46370003D085689E18B542EBD3082CA9
S3150800123009D190F82810090705D5995C302902D0FC
S315080012405B1E30219954C3F1180141619A188260D6
S31508001250026A914208DA511A81614FF6EF72018DDE
S3150800126011400185F0BC7047002A0ED590F8282059
S3150800127002F01402102A08D1426A0369D21A836955
S31508001280D21A531A012BA8BF8361F0BC7047F8B570
S3150800129004460D4616461F46002004E0E869401C31
S315080012A0E8617F1E002047B116F8011B6868A04751
S315080012B068600028F2D14FF0FF30F2BD686C747A8E
S315080012C04C0000007CB504460FF25810524E30F818
S315080012D01450009501208DF8040000A956F8240042
S315080012E0FFF79EFC56F82400056173BD0FF2341112
S315080012F0494A31F8101052F82000416170470FF240
S315080013002411454A31F8101052F82000016170473F
S3150800131041490FF2101351F82010CA6833F810002B
S315080013205040C8607047F0B585B0044608208DF86F
S3150800133010000D460FF2F000384F30F8146003968F
S3150800134003A957F82400FFF76BFC57F82400314629
S31508001350FFF7A5FC012D26D10FF2D40030F81400B2
S3150800136001900FF2C80030F814008DF808004020EC
S315080013708DF8090001208DF80A008DF80B0001A8E8
S3150800138001F05CFA0FF2AC0030F814008DF800009A
S315080013900F208DF801008DF8020001208DF803005A
S315080013A000A801F089FA05B0F0BDF0B51C4C83B071
S315080013B005460E4654F82500002100F08DFF54F826
S315080013C02500314600F054FF0FF26C0030F8157016
S315080013D0009709208DF8040004EB850600A97068BB
S315080013E0FFF71EFC70683946FFF759FC0FF24C00F0
S315080013F030F81570009704208DF8040000A9B0682D
S31508001400FFF70EFCB0683946FFF749FC54F825008B
S31508001410012100F061FFF7BDC8040020D0040020B8
S31508001420D4040020010040008000000020000000D5
S31508001430070000000E00000002000000040050F83B
S31508001440041B61B150F8042BD30744BFA9F101036B
S315080014509A180023091F42F8043BFAD1EFE77047B0
S31508001460704780B530484061002101704160142101
S31508001470018100214181FF2101730FF22900FFF745
S31508001480C0F900F005F8BDE80240012001F059BB9B
S3150800149080B5FFF761F82449496900F03DF8012055
S315080014A0087001BD10B582B000208DF800001E4CF2
S315080014B06069007801282ED1FFF74EF861694968FE
S315080014C0814228D201208DF8000004F1100101F0B4
S315080014D0ECFA802808BF218A03D0606941894A1C32
S315080014E042816069007B00F071FEFFF735F861699B
S315080014F000F012F8052349222A21012001F0AAFA50
S315080015008DF800009DF80000012804D0BDE81640BB
S31508001510032000F032B813BD0B894FF47A7292FBA0
S31508001520F3F2101848607047C81200200E480021D0
S315080015304160017041708170C1707047F8B5064608
S315080015400F4615461C46FFF707F8084901FB160023
S315080015504EF6602101FB17004FF47A7101FB150066
S315080015600149001B4860F1BDE80F002080EE3600F7
S315080015700449002008707047704702490870704790
S3150800158000000000AF15002014484B21017000210F
S315080015908160C160016101214161202181611421BD
S315080015A0417081700421C17001710021C1617047C9
S315080015B010B50A4C0A4920710A225043253808708A
S315080015C091F9000001F0F7FAA07101F0F6FA6071DE
S315080015D010BD0249887001F0E8BA0000B80500207D
S315080015E05407002000202349421800231071137362
S315080015F0002201EB8003401C08289A61F4DB0820CE
S315080016000870487800B14A7001F022BB38B5194C09
S31508001610207808B9FF2032BD401E2070C0B20019DC
S315080016200579291901200873FEF796FF04EB850151
S315080016308861284632BD08280E4903DB888A401C83
S31508001640888270470A7853181871501C08707047BA
S3150800165008494978002908BF01F00ABB00207047ED
S3150800166004484078002808BF01F016BBFF207047E1
S3150800167000000000D8090020B0490020C870704753
S31508001680AE490120C8700220AD49087038B5AC4D86
S31508001690AA4C2878012805D120700020607001F036
S315080016A0F0FB05E020B920700120607001F04CFDC8
S315080016B02878022808D100202070607001F054FFB5
S315080016C0BDE8314002F062BB31BD38B504469D48DD
S315080016D000780D46E179884218BFFF2905D12946C9
S315080016E0204600F013FC012848D060780A2804BF79
S315080016F0204600F0D6F99448007885423ED29048B4
S31508001700627800788D490B3A0CD0521E10D0921E82
S3150800171017D0521E22D05B3A032A18D9083A032A50
S315080017201CD922E050BB2046BDE8324001F0D1BDAD
S3150800173020BB8648007808B32046BDE8324001F051
S3150800174006BED8B92046BDE8324001F09ABE022846
S3150800175014D12046BDE8324002F051BBC87868B1C2
S3150800176029462046BDE834403DE00878012805D1E1
S3150800177029462046BDE8344001F0E7BB31BD6F4934
S315080017800122CA706E4A12781AB1022A06D002D30A
S31508001790704701F038BE00208870704702F00CBC14
S315080017A010B504466A480088FD2820461CBFBDE8D7
S315080017B0104000F072B800F08EF86148007818B151
S315080017C0022809D004D30BE0204601F0ECFD08E01E
S315080017D0204601F00AFC04E0204602F0D0FB00E0B7
S315080017E0002040B210BD70B504460E46FFF70EFF46
S315080017F00546FF2D07D10323052201214FF6FF7069
S3150800180000F00FFA3EE06078722815D1A17A0A46F0
S31508001810D31C502B04F10B0019DA491CA172494953
S3150800182009781154A17A0E54491C4A1CA272C9B2ED
S31508001830484A12780A540AE0752808D104F10900C2
S3150800184002E041780818801C01784129F9D1A0796D
S31508001850414AC01DC0B2002105E064260B5706FBAD
S315080018600516491CB3548142F7DB2846FFF7F0FEFC
S3150800187050B9032304220121284600F0D2F928464C
S31508001880FFF7D9FE002070BD012070BD2C480078F6
S31508001890012808BF01F0BABA70472F4940182C49E9
S315080018A009880A0242EA1121418026490978090273
S315080018B081802A490A7832B14A78521C4A702849E6
S315080018C00A78521C0A70274980790A68C01D101ABE
S315080018D0086001207047204940184178752907D1CA
S315080018E00930417801E00818801C0278412AFAD1AB
S315080018F070471349097819B1022905D002D37047F0
S3150800190001F0C9BD01F0A4BB02F066BB0C4B1B7805
S315080019101BB1022B09D002D3704701F043BC134612
S315080019200A460021C0B201F0CFBA02F089BA0449CA
S315080019300978002908BF01F090BC7047A815002057
S31508001940AD040020FD060020B0040020890F002009
S31508001950B8040020BB050020100A00202A09002030
S315080019608F0F0020BC040020DFF8F003DFF8F02317
S3150800197000218160C160016141618161C1610162CB
S315080019804162C1704FF6FF71C1800021417001218B
S315080019901170032101705A2181700FF20900FEF7B8
S315080019A030BF000010B5DFF8B4432079022818BF0D
S315080019B0032808D1FEF7D0FDA16A81423CBFBDE8E5
S315080019C0104000F04DB910BD40884FF6FF718842AF
S315080019D01EBFDFF890130978814207D1DFF87C1320
S315080019E0002048700120DFF87813087000F0A5BBC6
S315080019F042F2107000F091BB2DE9F84F00F109068C
S31508001A0088463078DFF864B3D94CDFF86893DFF896
S31508001A1068A3002503E00725AE190025307841287C
S31508001A203AD0401E07283AD8DFE800F00405060F2A
S31508001A3029392B1FEFE7EFE7B71C06253878FFF79C
S31508001A40C8FDF878CD490870E6E7B01C0B25416853
S31508001A50CBF80010016811F1010F18BFC9F8001082
S31508001A60007A0F28D8D02070D6E7B01C0725016861
S31508001A7011F1010F18BFC9F800100079F1E7042524
S31508001A80CAE7B01C07250078FD2802D1AAF800008D
S31508001A90C2E7FF28C0D0F9E7B94880F80080BDE85A
S31508001AA0F18F38B50446B4F80F00A27B010241EA6B
S31508001AB01023617B207B9BB2FFF740FDA74DE8789A
S31508001AC0012817D1A07CEA880146824224BF01F585
S31508001AD0807189B2E63291420CDAE8804FF6FF72DD
S31508001AE000F060F8A0802146607C401C60741420D9
S31508001AF002F0C5FBFEF730FD6862E869401CE86144
S31508001B0031BD2DE9F0410446A51C9A4E2869974F28
S31508001B10DFF8708200F03AF83060686900F036F84D
S31508001B2038609649687E88F8000094F822000870A4
S31508001B30A87BFFF73DFDFFF7A9FD42202070102086
S31508001B4060704FF47E40608000F02CF868801120A9
S31508001B50287198F800006876386800F017F8686108
S31508001B60306800F013F82861412084F823007E4885
S31508001B7005780420FFF71CFDFE222146242002F0EA
S31508001B807EFB2846BDE8F041FFF712BD010A01F4C5
S31508001B907F41020241EA106102F47F02114341EAE1
S31508001BA0006070476F4800780002704710B5764CA1
S31508001BB02078012821D0754942200870772048707E
S31508001BC04FF47E404880FFF7EDFF888041208871FA
S31508001BD04888020242EA102292B2072002F04FFB1E
S31508001BE06B48007818B16B480178491C0170614848
S31508001BF00168C91F01600120207010BD624A0021DA
S31508001C001170D0F80600010A01F47F41020241EA88
S31508001C10106102F47F02114341EA006055490860E9
S31508001C2070474E488168491C8160704738B504463C
S31508001C30607AFFF7CEFC494DA07A2871FEF78CFC36
S31508001C40E8622979032905D16430A862BDE83140E4
S31508001C5001F00DBB022904BF00F21A40A86231BD8B
S31508001C6010B54D4800781A28ACBF0B20401CC0B2EE
S31508001C70FFF7AFFC394C2079032807D1FEF76CFC37
S31508001C806430A062BDE8104001F0F1BA022804D120
S31508001C90FEF762FC00F21A40A06210BD10B52F4C88
S31508001CA0417A2279C07900F004F8206A401C206243
S31508001CB010BD2DE9F04304462B48284F90F80080C4
S31508001CC085B0002038710D4616462846FFF781FC78
S31508001CD042208DF8000000A914208DF801004FEA73
S31508001CE0042920480078ADF8029002028A808DF80F
S31508001CF0074009228DF8062008724D728DF80A6091
S31508001D00FEF72AFC0646FEF727FC0446FEF724FCE7
S31508001D100546FEF721FCF96A631A1B0A721A03F4D0
S31508001D207F4343EA12626B1A1B0203F47F031A43CA
S31508001D30401A42EA0060CDF80B0041208DF80F00EA
S31508001D400420FFF735FC4A4600A9102002F097FA4E
S31508001D504046FFF72DFC05B0BDE8F0834804002097
S31508001D60A7150020FD060020BB050020C0040020A2
S31508001D70B1040020BC040020B8040020B0040020F0
S31508001D80A4150020AD040020B20400203C08002061
S31508001D902A090020AC150020BA0500205548FF2165
S31508001DA041708170C1704FF0FF321421017082605A
S31508001DB000214260C1607047704738B54D4D0C46EA
S31508001DC02870FEF7C9FB2018A860FEF7C5FB05F1C9
S31508001DD0100300F06AF8A87005F11C03A8680FF252
S31508001DE00D010022FEF7CCFCE87031BD10B5414C60
S31508001DF0A078FF2805D004F11001FEF78BFCFF2020
S31508001E00A0702078FFF7E5FB01F0C0FFE06820B17D
S31508001E10607800F0C0F80020E06010BD70B5354C61
S31508001E20E06800264FF6FF7530B92B46621C08217C
S31508001E30502000F028F9E060E06830B9FF206070B3
S31508001E401820BDE87040FFF798BB0680217881709E
S31508001E50E1682078C870FEF77FFBA168884203D244
S31508001E60FEF77AFBA1680E1A300A00F47F403102A9
S31508001E7040EA166001F47F010843E16840EA06601B
S31508001E804860642261781C4802FB01012A4691F9E0
S31508001E900600C01DC0B202F0F2F9FEF75DFB04F1C0
S31508001EA0100300F002F8A07070BD002213496430D8
S31508001EB0FEF766BC38B5851C0E4CA8782070E0780D
S31508001EC0FF2816D1FEF748FB69680A0A02F47F4222
S31508001ED00B0242EA116203F47F031A4342EA0161E4
S31508001EE00818606004F11C0300220549FEF748FC47
S31508001EF0E07031BD78040020100A00201D1E00087D
S31508001F00ED1D00086B4900200870704780B54278BF
S31508001F10743A012A03D800F004F8012002BD002013
S31508001F2002BD2DE9F84306468846B07996F808902A
S31508001F30C71D0924FFB206E02846FFF7BBFF6878ED
S31508001F400019801CC4B2BC42B8BF632C21DAA5199B
S31508001F50287810380128F2D91038F0D01038EED089
S31508001F602038E9D010380328E9D90026514F0DE06A
S31508001F70F01929780079884206D107EB860342468C
S31508001F801B69294648469847761CF6B23878864231
S31508001F90EEDBBDE8F183FFF74EBB10B50446FFF74D
S31508001FA057FB50B90223042204212046FFF739FEC5
S31508001FB02046FFF740FB002010BD012010BDF8B5F4
S31508001FC004460E461546FFF721FB0146FF293170E8
S31508001FD04FF6FF7006D1022305220421FFF721FEE2
S31508001FE00020F2BD6423344A5943891842220A70F4
S31508001FF004F10B0675224A70FF2D0EBF02462A46CB
S315080020002846000240EA12204880F0232B4A10781E
S3150800201000028880C81D0570042512784270821C4B
S3150800202013700B23642EA8BF582454700022244E24
S3150800203003E02F546D1C5B1C521C3778A2422DB24C
S31508002040F7DB7A1C327041222A54681C8871581CA6
S31508002050C0B2F2BD0146642217484A43101880B53B
S315080020600930082906DB1A20FFF787FA09E04178C4
S315080020700818801C0178412918BFF029F7D1F029E2
S3150800208000D0002002BD70B504460D461646DAB2E9
S3150800209031462846FFF793FF20B90B20FFF76DFA64
S315080020A0002070BD3078FFF7D5FF04704570801C9E
S315080020B070BD000010140020100A0020FD06002044
S315080020C0A715002010B50021674800EB41021184CE
S315080020D0491C8029F9DB654C20600021016000F16C
S315080020E02001C0F806104FF4C8714181142181807F
S315080020F00021C0F80E10818141820175C0F81510C3
S31508002100C0F8191042F2107141820FF24900FEF729
S3150800211078FB21680020487710BD54490A68538A1D
S315080021204BB95377002209680A804A800A88143214
S315080021308A8048827047002070474C480068418A68
S3150800214031B10021418201804180018814318180AA
S315080021500120704710B5454C2068017D012909D139
S31508002160FEF7FAF92168D1F8152082422DD200200F
S31508002170087510BD418A41B301888088081A401E37
S315080021804FF6FF61884220D2142000F034F848B98F
S31508002190216801200875FEF7DFF9401C2168C1F89F
S315080021A0150010BD2068418A491E418244F6206206
S315080021B0818814318180143981814389D0F80E10C1
S315080021C0B2FBF3F25118C0F80E1010BD274800688C
S315080021D0D0F80620037803F07F0322F8131001884D
S315080021E0491C018089B24288891A11F07F0F04BF01
S315080021F0511C4180704738B50446FF208DF8000011
S31508002200E51CFE2200A9E8B2FFF7D9FE20B918207E
S31508002210FFF7B3F9002032BD9DF80000FFF71AFF5B
S3150800222060220270811C457010480268537F5D1C4D
S3150800223055770B7000224A708C70C91C0DE0036834
S31508002240D3F806509B899B1803F07F0335F81330A3
S31508002250642593FBF5F35354521CA242EFDB9DF819
S315080022600000FFF79AFE32BDE4120020E0120020BB
S3150800227038B504460D46A0694FF6FC710840A061C2
S31508002280E96868680843A968084329690843206219
S3150800229002F07EF82968E26A120C1204E26249002A
S315080022A0B0FBF1F1E26A89B20A43E2624900B0FB87
S315080022B0F1F22B68491CD21AB0FBF1F048BF524222
S315080022C0C01A48BF40429042206BB2BF40F001009E
S315080022D040084000206331BD002981694FF6FC7231
S315080022E005D011408161816941F0010100E011408A
S315080022F081617047002A026C11BF1143C94389B234
S31508002300114001647047002AC26C11BF1143C943CA
S3150800231089B21140C1647047016941F00401016145
S315080023207047016941F0080101617047002A14BF2E
S3150800233041F0010101F0FE010160016941F002016D
S31508002340016101698907FCD470470160016941F0A0
S3150800235002010161C8210269920705D50A46511E84
S31508002360002AF8D101207047C8218268920704D450
S315080023700A46511E002AF8D10220704780680022BA
S31508002380084218BF012210467047000080B59A48D7
S3150800239000210170A0F8781045226421001D02F082
S315080023A009F844226421954802F004F80FF2150052
S315080023B0FEF727FA9248012101704FF6FF71418016
S315080023C001BD000070B58F4D8D4C287801281BD1B2
S315080023D08D4EF07A032812D0707A317A01EB0021FB
S315080023E089B201220846FFF791FA6068401C6060CE
S315080023F08648017806F10C0000F00FF802E0A068A4
S31508002400401CA060002028702078012804D160882C
S3150800241000F0AAF80020207070BD70B504460E467C
S3150800242060787B49764D0A7801286AD007284FD00C
S31508002430082829D009281FD00A283BD00D2810D0F3
S31508002440112826D013283ED0152828D016282BD098
S3150800245067286BD0682864D071285ED0782858D051
S3150800246069E02046FFF78BF92046FFF7C1FA0120FD
S315080024702870FE20688070BD2046FFF7FDF82046CC
S31508002480BDE87040FFF7A0BA2046BDE87040FFF7E8
S3150800249038BB31462046BDE87040FFF7ADBA204646
S315080024A0BDE87040FFF7C2BB04F10B00BDE8704001
S315080024B0FFF700BD2046FFF7F4FAFFF7E7F9FE201D
S315080024C0FFF735FA43E02046BDE87040FFF7E6BB64
S315080024D0608800F043F84FF6FF7188423DD1A08826
S315080024E000F03CF845F25321884204BFA0795428ED
S315080024F033D1FFF741F8474900200860464908707C
S3150800250002E02870FE2068800120BDE87040FEF7D2
S31508002510EDBEBDE87040FFF7B9B940490020087024
S3150800252070BDBDE870409920FFF740BB2046BDE866
S315080025307040FFF763BB032A08BF0C2804D138484C
S315080025400178FE20FFF7B5FB3648007828B93146F2
S315080025502046BDE87040FFF7B8B870BD010A000212
S3150800256000F47F40084370472DE9F0410546234CA7
S3150800257042202070E57175206070280240EA152017
S315080025806080294800782072010211206072A180BB
S315080025900520A0720A21FF20A171E072FDF7DCFF79
S315080025A08046FDF7D9FF0646FDF7D6FF0746FDF735
S315080025B0D3FF18490968731A1B0AA8EB010203F42A
S315080025C07F4343EA12627B1A1B0203F47F031A4312
S315080025D0401A42EA0060E0602A46412020742946F3
S315080025E00FF24800FDF7DCFF2146BDE8F0414FF643
S315080025F0FF72112001F043BEB00800203C080020FD
S315080026002C0900203C090020400900203D09002033
S315080026104C040020EC0F0020A71500202A090020F2
S31508002620BA050020B2040020FD06002053656E643A
S31508002630696E6720504F4E47207061636B65742042
S31508002640746F202564202830782578290D0A000023
S3150800265010B5314A136C23F008031364EFF31183A2
S31508002660602484F31188090341EAC01040F0010090
S315080026702A49086008201060DBB283F3118810BD70
S3150800268010B5254C11E072B6254804210160206C6E
S3150800269040F00800206401F0ABFE206C20F0080032
S315080026A0206420480421016062B620680007EAD544
S315080026B0082020601C48006880B210BD80B5FFF76E
S315080026C0C7FFBDE80140DBE714480168490849002F
S315080026D001607047F8B50746FEF725FB04463946FC
S315080026E00320FFF7EBFF054639460120FFF7E6FF13
S315080026F0064639460020FFF7E1FF08490A685208EE
S3150800270052000A60401B0004711BB0FBF1F06043E5
S315080027104000000CF2BD000018A000400470004004
S3150800272000E100E080E200E00070004030B50446B9
S3150800273010467F2808BF0020B1F5004F83B01AD194
S3150800274008237F2240F6120100A8FFF7EFFF0822B0
S315080027500FF2380100A801F08CFE30B908237F2259
S3150800276040F2A27100A8FFF7E1FF082200A920465F
S3150800277001F07DFE37BD044D294300FB03111A46BF
S31508002780204601F074FE37BD00000408FFFFFFFF76
S31508002790FFFFFFFF0278C9B28A421AB11CBF10F8C0
S315080027A0012FF9E718BF00207047000000F1010368
S315080027B0810704D010F8011B89B18107FAD1026894
S315080027C0B2F10131914311F0803F04BF50F8042F54
S315080027D0F6E710F8011B11B110F8011BFBE7C01A48
S315080027E070470000C9B2830706D0521E22D310F8DC
S315080027F0013B9942F7D11FE0083A13D302F10402CC
S3150800280041EA012141EA014150F8043B121F21BF68
S315080028104B40A3F1013C2CEA030C1CF0803FF3D09B
S31508002820C9B2001F083210F8013B521E28BF91EAB0
S31508002830030FF8D818BF0120401E704710B501795C
S3150800284083790A091B49002B51F8223023F0E0034B
S3150800285041F8223007D00279120951F8223044791A
S31508002860234341F822300279C3791209002B51F823
S31508002870223014BF43F4807323F4807341F8223066
S315080028800179202918BF312910D1094A01F00F0111
S3150800289052F82130002342F82130017901F00F0166
S315080028A052F821300068184342F8210010BD000094
S315080028B014BC004060A80040F0B50378C4781A46F6
S315080028C00121ECB1134B1B68447803F4E063C3F5AC
S315080028D0E0631B0AC3F10405AC4085780F2626FA87
S315080028E003F707EA050323430B4C1B01135500782E
S315080028F000F01F029140094A400942F82010F0BD35
S3150800290003F01F0001FA00F00549520941F82200B8
S31508002910F0BD00000CED00E000E400E000E100E09E
S3150800292080E100E070B59948994942780B685B07E1
S3150800293025D5032A23DA838800EB4204A3810123E1
S31508002940847803FA02F222438270924C0278002AB3
S3150800295012D0002522FA05F6F60708D5AB404570D1
S315080029605A40027010EB4500808A206007E06D1C13
S31508002970EDB2032DEEDB02E02260032242704FF631
S31508002980FF700860BFF35F8F70BD30B5EFF311813C
S31508002990602080F311887D4A1378FBB17D4C20684E
S315080029A0C0071BD4002023FA00F5ED0711D5012531
S315080029B0854050706B40137002EB4002744B928A4C
S315080029C022604FF6FF721A604FF40062724B1A606B
S315080029D005E0401CC0B20328E5DB00E00320C9B2CD
S315080029E081F3118830BD10B5684C0020207088B07E
S315080029F0032060700020E070052020810020A07070
S31508002A0001F06FFD0121201D01F061FD00200690F7
S31508002A104FF4004007904FF460400090002001906A
S31508002A200290A8200390022005900020049000A898
S31508002A3001F03AFD01F04FFD5548042101644FF6B7
S31508002A40FF7101604FF400605349086001F08FFD83
S31508002A5008B010BD10B52A29044601D0012010BDC2
S31508002A604A48D100028941EA4331114300EB440246
S31508002A70918201210278A1400A4214D1EFF3118212
S31508002A80602383F3118803780B430370D2B28378EB
S31508002A9023EA0101817082F31188FFF776FFA042CD
S31508002AA001D1812010BD822010BD70B5EFF31182CF
S31508002AB004460D46602A3948374909D20A6812057C
S31508002AC006D50268920802F0010282F0010200E0CF
S31508002AD00122EFF31186602383F311883AB109685E
S31508002AE0090504D50068400748BFFFF71BFF2749BB
S31508002AF08A780120A04022FA04F3DB0707D501EB08
S31508002B00440350409B892B808870802009E00A780E
S31508002B10024218BF822004D14878A0420CBF812007
S31508002B208420F6B286F3118870BD38B504460D4682
S31508002B3029462046FFF7B9FF842818BF8028F7D111
S31508002B4032BD38B50446072389222A21FFF782FFBA
S31508002B500E4D05F11C012046FFF7E7FF802809D135
S31508002B600723B9222A212046FFF774FFA91D20460C
S31508002B70FFF7DBFF802805D1E988AA8B891AE98047
S31508002B80012101E000210120E97032BD98070020EB
S31508002B9010A8004004D0004000E100E050A8004022
S31508002BA080B502F069F9002002BD01F01ABF02F0F3
S31508002BB04FB801F08EBB01F01CBF01F092BF02F0C6
S31508002BC08EBA02F091BA07E002F066BB02F094BA38
S31508002BD002F0C5BD01F06FBD0748704738B5074C10
S31508002BE02068216C01EA0005ADB2680748BF02F00B
S31508002BF062FB256031BD00009415002008A0004046
S31508002C0070B582B0044615460819A0F1080602F008
S31508002C1070FA20B12078032824BF801E2070F0782F
S31508002C2001F0F0FF96F90210663149B200910346A9
S31508002C30707900F00F00B179090241EA0040F17994
S31508002C4041EA00022946204602F0FBFA73BD00005D
S31508002C501A480021417000F8041BFF22092101F0DF
S31508002C60A9BB164801784078081A48BF093070474A
S31508002C7010B50446FFF7F5FF08280BDA0F48017868
S31508002C800A18491CC9B209291471A8BF0021017084
S31508002C90012010BD002010BD80B5FFF7E2FF012816
S31508002CA00ADB06494A785018521CD2B20079092A1A
S31508002CB0A8BF00224A7002BDFF2002BDC809002035
S31508002CC010B500F01DF8B0245C705A744FF6FF7406
S31508002CD05C604120DFF88C4319749874194624788F
S31508002CE05A689C6000F08FF8DFF87C03007820B102
S31508002CF0DFF878030178491C017000F07FF810BDF1
S31508002D00DFF86C3342241C70D86070472DE9F04117
S31508002D1005460E469046304600F09FF810F1010F22
S31508002D2020D0DFF84C43DFF84C734221217007EBC3
S31508002D304000B12161702146808C6060E560267490
S31508002D4084F81180C74800786268A0604120A074A2
S31508002D5000F059F800F02BF80B390160607C3884D4
S31508002D6001203870BDE8F08110B50446C0B2FFE70F
S31508002D7000F073F810F1010F18D0BD4942220A700D
S31508002D80B3224A70BB4A02EB4000808C48600C7341
S31508002D90B4480078886048734120887309204A68D7
S31508002DA001F06DFA00F003F80939016010BDAE486C
S31508002DB0007818B1B0480178491C0170AF4801681D
S31508002DC0704738B5AA4C42256360E0602570B22585
S31508002DD0A44B627441201B782174A0746570A360AB
S31508002DE02146626800F00FF89F48007818B1A44899
S31508002DF00178491C017000F001F831BD9F4801684F
S31508002E000B39016070470B2001F039BA38B59D4877
S31508002E10974D04784220287079206870FE206860F3
S31508002E2090480078A86091480078287392480078FE
S31508002E30687393480078A87393480078E87341202C
S31508002E4028740420FEF7B4FBFE222946FFF7DBFFB1
S31508002E502046BDE83240FEF7ABBB0021854A8B18F9
S31508002E6093F90430012B02BF8A18127B904201D1D4
S31508002E7008467047491C09B20529EFDB4FF0FF30B9
S31508002E80704710B57949002008707B4908707C495D
S31508002E9008707D490870012073490870002075493B
S31508002EA0431800221A711A73002301EB40024418D2
S31508002EB09384401C237505281386F1DB8B83012038
S31508002EC0C8837249087010BDF8B507460C46154602
S31508002ED01E46FFF7C2FF6749B1F91C20052A29DA01
S31508002EE010F1010F19D10020431893F904307BB96A
S31508002EF000EB010C01238CF8043043181F7301EB17
S31508002F00400340189D8406751C86501C88830FE074
S31508002F10401C00B20528E7DB0CE001EB4002138EEB
S31508002F20A34207D2431840181F7395840675148662
S31508002F300120F2BD0020F2BD4E49CB8B5A1CCA8334
S31508002F4048490A7801461846BAE638B50446454D52
S31508002F506078B0281FD0B12810D0B32836D194F99C
S31508002F6007402878844231D0E0B2FFF776FF10F1A7
S31508002F70010F2BD0A0B2BDE83240F5E600F027F8E5
S31508002F8000F02CF800281EBF217C287888421DD026
S31508002F90627CE0680EE000F01AF800F01FF8A8B1AD
S31508002FA0217C2878884209D13249C88B401CC883BD
S31508002FB0227C617CBDE8384080B2A7E6627C9042FC
S31508002FC004D0E068BDE8384080B279E631BDA36830
S31508002FD0E068627C217C9BB280B2F2E6A268E16876
S31508002FE0607C012392B289B26EE770B528491D4DFF
S31508002FF044182878E67986420FD00120FEF788F92A
S315080030003046FFF72AFF10F1010F02BF2149098850
S31508003010FD2904D1FE20FFF78FFF002070BD15495A
S3150800302001EB4000808C60802878A0800E480078EC
S3150800303018B115480178491C01701048A279016831
S31508003040D21D891A01600120FEF762F9012070BDC0
S3150800305010490988FD2903D10F4A0021117083E61A
S3150800306070470000FD0600202A090020AC15002044
S315080030703C080020D8050020AD150020BC0400201F
S31508003080AE150020BB0500202B090020AA1500203C
S31508003090100A0020B8040020AC04002030B5D0F88F
S315080030A00D10DFF89024914228BFDFF88C146422B3
S315080030B05143D0F80920B1FBF2F1DFF87424D37834
S315080030C01C460F2C0EDA8088050245EA102002EB12
S315080030D044052884DFF8640420F81410581CD070BE
S315080030E0012030BD002030BD30B5002100224FF64A
S315080030F0FF70DFF84834DFF8384405E004EB410098
S31508003100491C008C2A46C9B2E578A94203DA33F885
S3150800311011509542F2D230BD10B5DFF81424D37899
S31508003120002101E0491CC9B2994204DA02EB4104C4
S31508003130248CA042F6D18B4201D1002010BDDFF8C5
S31508003140FC0330F8110010BDDFF8E403DFF8F023C4
S315080031504FF0FF310170002141708170FE2181839B
S315080031600021C17001211170002101714171817125
S31508003170C1710FF20900FDF744BB000010B5DFF876
S31508003180C443207801280CD1FDF7E6F9616881422D
S3150800319007D200202070DFF8B0036060BDE8104059
S315080031A08DE110BD70B504460D46FF2C164608BFC6
S315080031B04FF6FF7500F01BF810F1010FDFF87013DA
S315080031C009D10878401C087040B2142803D113208E
S315080031D00870002070BDDFF8742322F81040DFF86D
S315080031E0702322F8105040180672012070BD002185
S315080031F0DFF8582300E0491CCD4B93F9003009B29B
S315080032008B4205DB32F811309842F4D108467047F4
S315080032104FF0FF30704780B5FFF7E9FF10F1010F57
S3150800322002D14FF6FF7002BDC94931F8100002BD40
S3150800323010B5BF4CA178627811430DD1A083002048
S31508003240E07000F014F80A20A0700120607040F2C7
S31508003250E240BDE810405CE110BD80B5B44949784C
S31508003260012903D064224FF6FF711FE101BD38B56D
S31508003270B8480088D0F1FD0001D0002032BDAA4927
S31508003280AB4CB54D422008704FF6FF720B204870C4
S315080032904A80A648007808720302B0480068C1F858
S315080032A009008B800B232868C1F80D008B7141201B
S315080032B0A38B4874CB71122000F0E1FFA048007878
S315080032C010B16079401C60712868123828600120A6
S315080032D032BD80B5C179FE2907D1A049D0F80920A9
S315080032E00968914201D3002002BD00F002F80120CE
S315080032F002BD38B58C4942220A7041240C224A7014
S3150800330082884A80894A127813028B800B238B7134
S31508003310037A0A724C74CB71904A894C12682478E5
S31508003320C1F809208C4A1368C1F80D301CB1804CCD
S31508003330A5796D1CA571123B13608088020242EACA
S31508003340102292B2122000F09AFF002032BD38B542
S315080033500446774DA088AA78010ABAB1020202F497
S315080033607F42B5F91C300A439A420FD141EA002040
S3150800337081B2012280B2FFF715FF0020A87068709D
S31508003380E870012076490870FF2032BD41EA002125
S31508003390207A012289B2FFF705FF01212046FFF7AF
S315080033A07DFE80B232BD70B56E4944184FF6FF7582
S315080033B0E079FF2818D128460146000240EA112084
S315080033C060805A4800780002A0805D48007818B1ED
S315080033D05748C179491CC1715F48A2790168D21D55
S315080033E0891A0160012070BDFFF715FF5C4EA842DF
S315080033F01CBF31780029DFD1E079FFF719FF0020DB
S315080034003070032070BD4088010A000200F47F4036
S3150800341008434FF6FF71884203D1514901200870CD
S3150800342070470020704710B5024608464C4B0121EC
S31508003430197042233C490B70C8710E234B7041200A
S31508003440130243EA12234B804872384B3C481B78D8
S3150800345000780B721C028C8003248C7118B13448D6
S3150800346003795B1C03713C4803680A3B03604FF60B
S31508003470FF70824208BFFE220A2000F000FF0020EB
S3150800348010BD80B52949C0790978814218BFFFF770
S31508003490CFFE012002BD80B52E480088FD2804D144
S315080034A064224FF6FF71FE2000E001BDFFF77AFEA9
S315080034B02B4900200870FE20BDE80240B8E670B52A
S315080034C0FFF712FE05464FF6FF708542184C13D0DB
S315080034D02846FFF721FEB4F91C60C2B22946B0B2ED
S315080034E0FFF760FE0020E070F1B22846FFF79BFF69
S315080034F000206070A07070BDA07840B1401EA0701A
S3150800350040F2E24000F005F8BDE87040AFE66070B2
S3150800351070BD38B504460B4DFDF71EF820186860D7
S315080035200120287031BD00003C080020FD0600205F
S31508003530880F002099AB020098AB0200C80F002044
S315080035402A09002068060020005C2605380F00209E
S31508003550600F0020B8040020BC040020C00400202E
S31508003560AC040020100A002080B5DFF8941700206C
S31508003570887000F0C6F800F004F80020BDE80240A4
S315080035809DE12DE9F04784B0002000ADDFF87447CF
S31508003590002141550219FF21401C0A281171F7DB49
S315080035A0DFF864870020002100EB40024244401CFB
S315080035B00A2882F81A11F7DB00204FF01C0900E0F0
S315080035C0401CD8F8361188421DDA002709FB00810D
S315080035D014E002EB420C01EB4703C444B3F8033092
S315080035E0BCF81861B34202D1435D5B1C4355521CBB
S315080035F008F59B735B689A42EBDB7F1CCA7D974292
S31508003600DEDA0022F4E700270CE0785D48B909FB0A
S315080036100780817841F00101817000F066F800F0BA
S3150800362067F87F1CD8F836018742EEDB002712E0E0
S31508003630785D78B109FB0786B6F8030000F0A0F8B4
S31508003640B07840F00100B070B6F8030000F098F8C2
S3150800365000F04EF87F1CD8F836018742E8DB0025D3
S315080036600EE000F040F800EB400040447F1C90F864
S315080036701A11491E80F81A11F07D8742F1DB6D1C7C
S31508003680D8F8360185421CDA4FF0000A002709FBF4
S3150800369005860BE000F027F800EB4000404490F860
S315080036A01A010228A8BF0AF1010A7F1CF07D874289
S315080036B0F0DB8245E3D1B07800F0FE00B070002759
S315080036C0DAE70021002209E009FB02839B78DB0781
S315080036D003D5C9B20B19491C1A71521C8242F3DB75
S315080036E02170BDE8FF8706EB4700B0F8030047E006
S315080036F000EB4000404490F81A11491C80F81A1152
S31508003700704738B5DFF800460020C4F83601C4F81B
S315080037103A0100251C20684300210153001900F0D6
S3150800372010F86D1C0A2DF5DB0020002200EB400185
S315080037300919401CA1F818210A2881F81A21F5DB75
S3150800374031BD8170C1754FF0FF318161C01C1421F4
S3150800375002F08AB810B50021DFF8AC2500E0491C54
S31508003760C9B2D2F836410B46A34207DA1C2404FB39
S3150800377003231B888342F2D1084610BDFF2010BDE3
S3150800378010B50021DFF8802500E0491CD2F83A413F
S31508003790C9B2A14208DA01EB41039B18B3F8183104
S315080037A08342F2D1084610BDFF2010BD10B5DFF8E0
S315080037B05825D2F836410A2C01D1FF2010BD1C230A
S315080037C003FB0424208000F01FF8847804F0FE042C
S315080037D08470002400F018F8C475FF2400F014F86B
S315080037E081610020D2F8361103FB012101EB40016B
S315080037F0401C0A28A1F80340F4DBD2F83601411C24
S31508003800C2F83611C0B210BDD2F8360103FB00204B
S315080038107047F8B504460F463846FFF7B1FF064627
S31508003820FF2EDFF8E45416D1D5F83A010A281FD03E
S3150800383000EB400040190021A0F81871D5F83A01AC
S3150800384000EB4000401980F81A11D5F83A010646EF
S31508003850401CC5F83A01F1B2204600F019F81C21BF
S31508003860FF2801FB0451F6B20CD1C87D0A2801D104
S31508003870FF20F2BD01EB4000A0F80360C87D401CA4
S31508003880C87503E001EB4000A0F803603046F2BDBE
S3150800389010B5DFF874341C24002204FB003000E065
S315080038A0521CC37DD2B29A4207D200EB4204B4F846
S315080038B00340A142F4D1104610BDFF2010BD10B53B
S315080038C0DFF83C44E078A178084309D100F009F80C
S315080038D00320E0700120A0700A20BDE81040C0E176
S315080038E010BD10B5DFF82444204600F00CF84FF65A
S315080038F0FF722146C0B200F0C2FCDFF8140401686A
S315080039001239016010BD422101706A2141704FF6DB
S31508003910FF714180DFF8FC130A7812028280FF22C9
S31508003920C2710978017207218171DFF8E413096809
S315080039300A0A02F47F420B0242EA116203F47F0389
S315080039401A4342EA0161C0F80910412141730E2069
S3150800395070472DE9F04104000026D4F80900D4F890
S315080039600910090A11F47F4151EA1060D4F80910C8
S31508003970090211F47F010843D4F8091050EA0167D7
S315080039805FF00108A08880B2000A80B2A188090207
S3150800399011F47F410843DF490978884206D14FF47C
S315080039A0FA611520FEF709FA01202FE0DA48874266
S315080039B001D3DA480700642000FB07F0B0FBF8F0F3
S315080039C00500A08880B2A188090251EA102080B2B9
S315080039D0FFF7C0FE0600FF2E05D0CB481C2101FBD1
S315080039E00600856108E0290089B2A08880B2000A2D
S315080039F0C0B2FFF7DBFE0600FCF7AEFDC84B22009F
S31508003A000FF21101401DFCF7BBFE0120BDE8F08155
S31508003A1000000000F8B5BD4942230B7006266B234B
S31508003A204B7001F10E0283884B80BA4B1D782B022E
S31508003A308B80B54BD3F8364166430F368E71007AC4
S31508003A40C8710D724C730024B148056800F024F85B
S31508003A50C1F809500FE01C256543641CEE5A37026D
S31508003A6047EA1626ED1822F8026BE4B2AD6900F0B3
S31508003A7013F842F8045BD3F83651AC42EBDB41232A
S31508003A80137002688B79D21A02601846BDE8F840AE
S31508003A904FF6FF7200F0F3BB2E0A06F47F462F029C
S31508003AA046EA156607F47F073E4346EA056570470A
S31508003AB02DE9F84F044604F10E05D4F80900010A69
S31508003AC001F47F41020241EA106102F47F021143C8
S31508003AD041EA00609049884228BF9048642101FB6A
S31508003AE000F6207AFFF736FEFF28804603D000F05E
S31508003AF0B3F8866104E0207AB1B2FFF757FE804634
S31508003B000027DFF8109225E028884FEA102A99F84E
S31508003B10000050451CD005F1020B51464046FFF700
S31508003B2078FEDBF80010A0880A0A02F47F420B022E
S31508003B3042EA116203F47F031A4342EA01618A19D1
S31508003B40010A000200F47F400143504600F078F96C
S31508003B50AD1D7F1C607BFFB28742D5D30120BDE82F
S31508003B60F28FF8B5FFF70DFD6849422008704FF649
S31508003B70FF726C2048704A80664804780C722002EE
S31508003B808880634C5F48037824685D0009358D7129
S31508003B902602FF25CD7106F47F06250A05F47F4522
S31508003BA045EA1465354345EA0464C1F80940282BFB
S31508003BB05C4C554D24784C73A4BF282303700378B6
S31508003BC08B7300240DE026181C27367907FB06564A
S31508003BD03688370247EA162601EB4407641CA7F81D
S31508003BE00F609C42EFDB01EB43034120D873BDE82D
S31508003BF0F8408879C01DC0B200F041BBF8B504464C
S31508003C0004F10F05A088010241EA10264549607BA8
S31508003C100978884218BFFDF7DCFC002717E035F85D
S31508003C2017003C490978020A000200F47F40104355
S31508003C3081420AD1B0B2FFF78DFDFF2805D000F00A
S31508003C400BF8817841F0020181707F1CFFB2A07BDE
S31508003C508742E4DB0120F2BD2B491C2202FB00103F
S31508003C60704738B5264D04462878FF2804D0291D04
S31508003C70FCF750FDFF202870FCF76EFC2B1D002278
S31508003C800FF20D012018FCF77BFD287031BD0000EE
S31508003C9038B51B4C6078FF25FF2804D004F11801BD
S31508003CA0FCF738FD6570E078257078B1401EE07045
S31508003CB00120FDF72DFB4FF4FA70FFF7D2FFFFF74F
S31508003CC010FEBDE832400120FDF722BBA070FCF7CC
S31508003CD043FC04F110030D4A13490A30FCF750FD62
S31508003CE0FCF73AFC00F56A4004F1180300220F4974
S31508003CF06030FCF745FD607001200D49087031BD44
S31508003D0030060020E80D0020F80D00203C080020B1
S31508003D10BC040020FD06002099AB020098AB020007
S31508003D2058060020BA050020633B0008BF38000883
S31508003D30AC04002080B50120FDF7D8FAFCF70CFC8E
S31508003D40BDE80050DFF818330FF20501002219E02C
S31508003D5010B50120FDF7D3FADFF8084304F108008F
S31508003D60FEF724FD4FF6FF7204F10801C0B200F019
S31508003D7031FAFCF7F1FB2346BDE810405FF000027C
S31508003D80DFF8E41200F57A70FCF7FABC80B5DFF8C4
S31508003D90DC1200200870FF20DFF8D412087000201B
S31508003DA0DFF8D012087000F004F80020BDE80240E1
S31508003DB0C0E770B5DFF8C012DFF8C002D1F83A21C3
S31508003DC002704FF0FF3300224FF6FF7413E002EB48
S31508003DD042067618122505FB0205B6F81861A5F8FD
S31508003DE00160C5F80340C5F80730C5F80B40521CFA
S31508003DF0C5F80F30D2B20578AA42E8DB70BD80B5A7
S31508003E0041786A2907D013D36C290BD007D36E29BA
S31508003E1003D00AD30CE0FFF79CFD012002BDFFF793
S31508003E2047FEFAE7FFF7EAFEF7E700F003F8F4E7DC
S31508003E30002002BD80B5407BFDF7CBFB012002BD0B
S31508003E40F0B58E4C27780026122500E0761CBE4277
S31508003E5033DA05FB0643B3F801C08445F6D1D3F837
S31508003E6003004FF6FF74A04210D0884208BFC3F87B
S31508003E7007203FD0D3F8070082420CD2D3F80300BC
S31508003E80C3F80B00D3F80700C3F80F00C3F80310F4
S31508003E90C3F807202EE0D3F80B00A04208D08842CA
S31508003EA008BFC3F80F2025D0D3F80F00824223D2CB
S31508003EB0C3F80B10C3F80F201CE00A2F1CDA05FB09
S31508003EC00743A3F8010000F019F8C0F803104FF6ED
S31508003ED0FF7100F013F8C0F8072000F00FF8C0F8DB
S31508003EE00B104FF0FF3100F009F8C0F80F102078DA
S31508003EF0401C20700120F0BD0020F0BD207805FB95
S31508003F0000407047F0B54FF6FF72114600235A4C31
S31508003F1007E01C2505FB03452D88854208BF294671
S31508003F205B1CD4F83651AB42F3D30024534B05E05F
S31508003F30D5F80B50954218BF2946641C1D78AC422B
S31508003F401BD2122505FB0435B5F801608642F4D16B
S31508003F50D5F80360964202BFD5F80B609642114623
S31508003F60EBD0D5F80F60D5F80770BE42E0D3D5F888
S31508003F7003609642DCD03146DFE788B2F0BD38B53B
S31508003F80404944184FF6FF75E079FF280BD12846BB
S31508003F900146000240EA1120608039480078000294
S31508003FA0A080012032BDFFF7ADFFA842F0D1E01D89
S31508003FB0FFF785FC032032BD4088010A000200F4A1
S31508003FC07F4008434FF6FF71884203D129490120F3
S31508003FD008707047002070472DE9F84604464FF6EA
S31508003FE0FF75AC423AD000264FF0FF39234F32E036
S31508003FF0122000FB067ABAF80100A04212D1DAF8BC
S315080040000B00CAF80300DAF80F00CAF80700CAF866
S315080040100B50CAF80F90DAF80300A84204BF002034
S31508004020FFF74DFCDAF80300A0420BD1DAF80B00D3
S31508004030CAF80300DAF80F00CAF80700CAF80B50E6
S31508004040CAF80F90DAF80B00A04204BFCAF80B5062
S31508004050CAF80F90761C38788642C9DBBDE8F18627
S315080040602806002018060020353D000832060020E4
S3150800407014060020AC040020F80D0020300D0020A6
S31508004080FD060020100A002070B5FEF79CFD00789A
S31508004090B34C607060810020FEF79CFD60711420AF
S315080040A0B04DB14E28700420307000202071607821
S315080040B0FEF785FD43F23230FEF783FD2878FEF7DA
S315080040C074FD60713078FDF773FA00202070E060A7
S315080040D02081BDE870400FF20900FCF792BB000092
S315080040E0F8B50020FDF70BF99D4EA04C3079012854
S315080040F014D19F488179FE2902D1C178491CC17023
S31508004100FEF755FD10B10121306403E0F06B401C49
S315080041100021F063002030712170F1BD207828B9A4
S31508004120FDF7E4F83069401C3061F1BD307830B1F4
S315080041303289F16800F04EF800203070F1BD8D4CE0
S315080041402078002802BF8C4D2878FF2841D1706955
S31508004150401C7061FDF784FAFF28287039D0642264
S3150800416002FB00F7854EB919504391F90610C91D8F
S315080041702170FDF715FBC1B2012916D1384601F0A9
S3150800418077FB02467E4901200870B919207800F0AD
S3150800419021F8FCF7E1F97B49096808187A490860AB
S315080041A00120BDE8F240FDF7A1B82878032907D118
S315080041B0FDF74EFA48B100202070FF202870F1BDA7
S315080041C0012201231146FDF72CFDBDE8F140FCF75D
S315080041D00DBDF1BDF8B50446EFF31180602383F3F6
S315080041E01188624D2B780BB90020F2BD012B04BF54
S315080041F000232B70C0B280F31188287800283AD1A2
S315080042005B4E574FB6F80100F28043F2FF33184071
S3150800421040F40840A6F80100FE2A7878FA8004D10E
S31508004220F278B2728022F27200E070813081224602
S3150800423006F10C0000F01BF904F10D003070F0785F
S31508004240401CF070F869401CF8613046FEF7AFFC78
S3150800425010B1012028700EE00A207863FCF77CF97B
S3150800426007F14403474C0FF22D012468FA1C201865
S31508004270FCF786FAF8702878C043C0B2F2BD10B5CC
S31508004280374B1C7814B19C69641C9C611870D96002
S315080042901A8110BD38B5EFF31184602080F31188B8
S315080042A0324D287868B93448007801230322022160
S315080042B0FDF7B7FCFCF79AFC31490020087001208D
S315080042C02870E4B284F3118830480168491C0160FB
S315080042D031BD38B5224C0546206A401C20622800AC
S315080042E009D0402D0FD08D2D09D08F2D02BF206B00
S315080042F0401C206318E0606A401C606214E0A06AF3
S31508004300401CA06210E0E06A401CE062606B411E3F
S315080043100128616305DBA06B401CA06301202071A6
S3150800432031BDE088FDF7E5FAA570154D2878012816
S3150800433008BFFCF75BFC0020287004F14401E07814
S31508004340FCF7E8F9FF20E0706021EFF3118081F3B4
S315080043501188064A01211170C0B280F3118831BD57
S31508004360FC060020BA050020BB0500206C050020CD
S31508004370EC040020B5040020B4040020100A002034
S31508004380B3040020C4040020D4050020041400202F
S315080043900548006800F00300032801D10348704768
S315080043A003487047000000001C40004000366E01BC
S315080043B0001BB70062F30F2262F31F4200B500BF6D
S315080043C0130096469446103928BFA0E80C50FAD830
S315080043D05FEA417C28BF0CC048BF40F8042BC907D8
S315080043E028BF20F8022B48BF00F8012B00BD0000AB
S315080043F000BF30BF00BF704780B501F00DFB2648EF
S31508004400016821F0100101600020FCF761FCFEF74D
S31508004410EAFAFCF74DFC01F0B1FB01F059FB01F09B
S31508004420CCFABDE8014001F0CFBB81B209B94BF621
S31508004430EF611A4A1180000C08BF4FF6CE20508053
S3150800444070470288130448BF4A405100018010464D
S31508004450704738B5114C62212046FFF7F2FF054632
S3150800446041F20B01A01CFFF7ECFF684032BD01F0DA
S31508004470CDBB80B501F006FC40B202BD0848016814
S31508004480C90708D5074A03211170016C4908490074
S31508004490016401210160704700BC0040E00400206F
S315080044A018A00040A5040020026843680F491A4373
S315080044B083681A43C36842EAC30203691A430A6057
S315080044C04269CA6082694A60C06988607047084A5A
S315080044D01060516070470748016841F001010160AA
S315080044E070470449102008607047000004D0004057
S315080044F018D0004010D00040DFF8F03533F810002F
S315080045001040C840704730B5DFF8E4350FF28C64C8
S3150800451034F810409C60DFF8D44534F810509543C1
S3150800452011402943D96002221A6000221A6024F831
S31508004530101058680028FCD130BDDFF8B805DFF840
S31508004540B8158A780AB149780FE089566FF00802DB
S315080045509142B8BF302108DBC16D39B140F24A310A
S31508004560C26DB1FBF2F189B2C91E0160704730B560
S3150800457087B00A237F22DFF88405018803A8FEF79F
S31508004580D5F8BDF81210DFF870554FF6FF72914254
S3150800459002D0287BC0077CD5FCF7C5FB0446E87823
S315080045A020B90120E870A88900F085F84FF47C62EC
S315080045B04FF400710D20FFF7A6FF0323892200F0B0
S315080045C076F801A900F06EF800F06FF80DF1020117
S315080045D000F068F8BDF8020000F060F8ADF80200D7
S315080045E00323B92200F063F802A900F05BF8BDF8CE
S315080045F0080000F053F8ADF808004FF47C624FF459
S3150800460060610D20FFF77FFF00F04FF800A900F06A
S3150800461049F8BDF8000000F041F8ADF800000323A2
S31508004620B92200F044F80DF1060100F03BF8BDF898
S31508004630060000F033F8ADF80600BDF80600BDF830
S315080046400010490801EB0040BDF80010B0FBF1F07E
S31508004650BDF80810BDF80220520802EB0141BDF86A
S315080046600220B1FBF2F1411A89B24FF47C6280B2A2
S31508004670E3034FF49664B3FBF4F3C01A01EBD1736A
S315080046805B1003EB0010B0FBF1F0083800F03F00B8
S3150800469081010D20FFF737FF07B030BDBDF80410C4
S315080046A0401A70470020FEF740BA0323A9222A21A0
S315080046B00020FEF7CFB9F8B50546DFF83C44B5F556
S315080046C0004F19D102237F22DFF8340400F005FADF
S315080046D0BDF80000000AFF2814BF002818206070E3
S315080046E0BDF800000006C00E10281CBF001D00F013
S315080046F080F9BDF80000C543E07808B1002005E060
S31508004700A089ADB26840C00701D50120E070A58137
S3150800471005F00106C5F34007DFF8E803016841F430
S31508004720004101604FF440520FF2944000EB4600FE
S315080047304078010389B20220FFF7E5FE304601F012
S31508004740D3FA4022B90100F0C6F92D06A80E00F0EA
S3150800475001003843A070FFF7F0FEE07818B1FFF7C4
S3150800476006FF0020E0700020F2BDDFF88C03808988
S3150800477070472DE9F04F87B0DFF88C5328780490FE
S315080047800B38C4B2A000001D03900422014600A8FD
S3150800479001F051FB9DF800008DF80A009DF8010014
S315080047A08DF809009DF802008DF808009DF80300B1
S315080047B08DF80500D54E3078012804D16878471E53
S315080047C0BF41FF0F00E0012700F0FBFF80469DF97F
S315080047D00200A8F10A0908F10A0A5045B6BF814540
S315080047E04FF0010B4FF0000B0120A040ADF806007A
S315080047F09DF80100000604D4A888BDF806100842F2
S3150800480001D04FF0010B01F039FD9DF803000006B9
S315080048100AD4E888BDF80610084205D19DF90000BB
S315080048205045B8BF814502DB4FF0010901E04FF062
S3150800483000094BEA070059EA000000F09780B448DF
S31508004840006800F002008DF80400DFF8C8A2DAF864
S31508004850000000F4C0600590AF484FF4C0610160E5
S31508004860002000F064FC01F047F9AC4CA7B1687869
S3150800487050B1A748006840084000A54908600120D3
S315080048803070FCF790FA07E0206840F4005020608A
S31508004890206820F480502060307801280AD19C488E
S315080048A0006840F001009A490860002030706420D2
S315080048B0FCF779FA2FB1687818B90498C0B201F0F4
S315080048C006FD687838B1206820F48050206020689A
S315080048D040F400502060BDF80600C643BBF1000F47
S315080048E008D001F0FCFD8DF801008DF80280A8883B
S315080048F03040A880B9F1000F08D001F0A6FE8DF867
S3150800490003008DF80080E8883040E8809DF90000B3
S315080049109DF90A10884202BF9DF801009DF809100A
S3150800492088420BD19DF902009DF90810884202BF02
S315080049309DF803009DF80510884204D004220399C7
S3150800494000A801F008FB0598CAF8000000F082FDEF
S315080049509DF8040000F0EBFBFDF7B6FE687828B179
S3150800496048F2607020606420FCF71DFA9DF801008B
S3150800497001F0F4FC9DF8030001F062FE07B0BDE803
S31508004980F08F00F01ABF70B50646A6F10B0400F0CA
S3150800499068FB0546A6F10B00C0B2102801D38A2091
S315080049A070BD5F488168090702D40068C00701D551
S315080049B08C2070BD544806705A490A680C2A0ED0D5
S315080049C0A4B20FF2701232F8242090F90800801869
S315080049D0C861FFF7CEFE012D08BF00F0D9FA002006
S315080049E070BD10B5044600F0E8FE2046BDE810404C
S315080049F0C9E72DE9F04186B006466FF02A008642DF
S31508004A0046DB14237F22484800F067F8BDF81000FB
S31508004A104FF6FF7188421EBF0E210842012506D1B6
S31508004A203F2200211020FFF767FD04460025324883
S31508004A303E4906F12B02D2B22F2A1AD213220FF2BE
S31508004A40341300E0521ED2B213F91270BE42F9DBDB
S31508004A5003EB420676780E6013F8121001700020F8
S31508004A60002680460327ADB14FF6BF72BDF8101079
S31508004A7029E0092E0CDA325C0A60067014237F22BC
S31508004A802B4800F02AF803200126B0462827EAE733
S31508004A908B201DE04FF46052C10200F01CF84FF461
S31508004AA0E062310200F017F880224FEAC81100F0E0
S31508004AB012F884F020003C18A4B2402C28BF3F24EA
S31508004AC03F2284F0200100F006F8FFF736FD0020AB
S31508004AD006B0BDE8F0810B2015E5018800A8FDF7B2
S31508004AE025BE054890F900007047000048140020CC
S31508004AF0E810004064100040600700204A050008DE
S31508004B00520500081C100040560700207C070020AC
S31508004B108020004000E100E080E100E0D010004085
S31508004B2060200040AC10004046050008C010004058
S31508004B3048050008AA212900552329000025280030
S31508004B40AA26270055282700002A2600AA2B260071
S31508004B50552D2500002F2400AA30240055322300A5
S31508004B6000342200AA3522005537210000392000DA
S31508004B70AA3A2000D500E601EC02EF03F204F40598
S31508004B80F506F707F808F909FA0AFB0BFC0DFD0FFD
S31508004B90FE11FF1300160119021C031F1000110055
S31508004BA02000300040004100500060007000800086
S31508004BB09000A000B000C000D000E000F0000000A7
S31508004BC00000010310B5DFF89005016821F4805153
S31508004BD00160DFF88845207898B100202070DFF85A
S31508004BE080050168490849000160016841F0010132
S31508004BF001600022A1694020FDF7DBFF6069401CC7
S31508004C00606110BD010603D54FF67F710840C000EC
S31508004C10704770B5DFF84445A07A012801D1002015
S31508004C2070BDDFF84455687868B1E878617B0E187E
S31508004C30B6B22879864228BF0646FFF70AFC012144
S31508004C40B140491E0840697908186082C0B270BD33
S31508004C502DE9F8430546C00701D501F0C2FDDFF886
S31508004C600C45206DC00748BF8C2000F18A80DFF80C
S31508004C70EC640020F0723070DFF8EC743878A0B17C
S31508004C802878122818BF0C280BD1697801F007017B
S31508004C90032902BF401910F8020C042804BF01209A
S31508004CA0F072A06F40F0010002E0A06F40084000DB
S31508004CB0A067307BDFF8B8847978A1B100217173D9
S31508004CC0216D41F004012165012808D1DFF8A4040B
S31508004CD04FF6FF7101604FF40070C8F80000FFF747
S31508004CE098FF81460CE0216D21F0040121654FF003
S31508004CF00009012804D100F085F96420FCF753F86F
S31508004D00A06F20F00800A0671420E064C4F848905B
S31508004D10787830B1307B002801BFA06C00280120CC
S31508004D20A064B8790028206D14BF40F0080020F070
S31508004D3008002065202020626560256060687F3055
S31508004D406060042020624FF4C060DFF82C1408600D
S31508004D5009E0EFF31181602905D3002181F3118859
S31508004D60602181F31188DFF81414096801F0030142
S31508004D700329EED0C8F80000206D40F00100206538
S31508004D800020BDE8F2832DE9F041DFF8F4436068BE
S31508004D90616C01EA0005ADB26560DFF8C063707842
S31508004DA000285CD1DFF8C083DFF8C073E80719D59F
S31508004DB03868396C7A6C42EA0141B16198F800208A
S31508004DC062B14078800609D5012030704FF48050D2
S31508004DD02060206C40F48050206403E0002200200C
S31508004DE0FDF7E7FE28060CD5307830B10020307084
S31508004DF00022B1694020FDF7DCFE206C20F48050CB
S31508004E00206468062DD4E80621D5707B401C707393
S31508004E1098F80210C0B2884212D2B86F20F0080083
S31508004E20B8671420B866FFF7F4FEB864DFF84003E5
S31508004E304FF400710160386D40F00100386506E0F6
S31508004E4000F08AFC002201468D20FDF7B2FE2807F5
S31508004E5005D5386C796C41EA004000F02BFAA806B3
S31508004E6001D501F0BEFC707820B115F4407F04BF6F
S31508004E700120B070BDE8F08170B582B00546FFF735
S31508004E8080FDDFF8000300210160DFF8D442152118
S31508004E90E160092101651F21416001210166FFF7D3
S31508004EA064FCFFF708FC00F0EEFA01F09DFC00F048
S31508004EB0F3F8DFF8A862F08900F011F9308A00F0FB
S31508004EC013F9606840F040006060707900F0CCF833
S31508004ED0B07900F0D5F8307900F0F5F8DFF8A802D7
S31508004EE090F90000FFF785FDF07800F020F996F9B3
S31508004EF0070000F028F9307A00F0FEF8707A00F022
S31508004F0007F902237F22DFF88402018800A8FDF74B
S31508004F100DFCBDF80000C0054CBF0020BDF8000020
S31508004F20DFF86C120870DFF86C020078FFF72BFDCB
S31508004F3008B101F056FC012D05D12068C0070FD530
S31508004F4000F026F80CE05DB92068C00708D4206890
S31508004F5040F001002060C820FBF725FF00203073D1
S31508004F60844DF120286440F2F910E86300F072FAE3
S31508004F707F484FF4807101602168C90705D54FF64F
S31508004F80FF7129604FF4C061016000F0B5FD73BD83
S31508004F90814A13687148017B012900D1704730B5F1
S31508004FA0EFF31181602484F3118848F2D004146069
S31508004FB055686D0509D548F2220515605568ED0551
S31508004FC0F5D5146055686D07F1D49BB213606A4A2B
S31508004FD04FF4C0631360714A136A5B085B0013627F
S31508004FE013685B085B001360136843F002031360E1
S31508004FF0536A43F00103536201220273C9B281F373
S31508005000118830BD5548017B01B9704738B5EFF3B3
S315080050101184602181F31188614901220A60514D8A
S31508005020296D41F0010129650021017300F012FA8A
S3150800503020202860286B40F002002863E86D40F0C5
S315080050400800E865E4B284F311880A20FBF7ABFE92
S3150800505048484FF6FF71016045484FF4C06101604A
S3150800506031BD3E48007B70474E4900280A6814BF88
S3150800507042F0120222F012020A603849487170475B
S31508005080484900280A6814BF42F0800222F08002CC
S315080050900A60324988717047434844494A780B7810
S315080050A013EB02220260CA788B7813EB0222426065
S315080050B04A790B7913EB02228260CA79897911EB56
S315080050C00221C1607047374900280A6814BF42F0B8
S315080050D0200222F020020A602049087170471F4901
S315080050E0C8813349086070471C49088231490860FD
S315080050F07047314800787047174900280A6814BF76
S3150800510042F4005222F400520A60144908727047A9
S31508005110184928B108220A600A6C42F0080202E01F
S315080051200A6C22F008020A640C49487270470C4956
S3150800513000280A6814BF42F0020222F002020A603E
S315080051400649C870704700F19A018905090C1B4A7F
S3150800515011600249C871704740A0004070070020DE
S315080051608020004030200040E40400201020004049
S3150800517000E100E004A0004080E100E0A820004033
S3150800518000A000405C10004060070020540500089D
S315080051905E070020560700201C10004060200040D3
S315080051A028100040842000409820004094150020D4
S315080051B094200040902000408C07002054100040A6
S315080051C038B5614D044695F8800090B1224605F140
S315080051D00C00FFF74CF904F10D002870E878401C24
S315080051E0E870002085F880002846FDF7E0FC85F881
S315080051F0810095F88000C043C0B232BD10B5534C4B
S31508005200207808B9642161640019001D01F05EFB6D
S3150800521048B12078001900793F2808BFFBF71CFB26
S315080052202078401C2070606C411E2078616418BF8D
S31508005230402805D120B1211DFFF7C2FF00202070AC
S3150800524010BD10B542490A78F2B98278882A15D174
S31508005250002204E0135C5418521C2371D2B203785E
S315080052609342F7DACA788A704078C8709DF90800C0
S31508005270C0F1FF0048700120087010BDD1F8880001
S31508005280401CC1F8880010BDD1F88400401CC1F844
S31508005290840010BD002070470020704780B540F29A
S315080052A067120FF2BC010FF2B00001F053FBC046C3
S315080052B0C04601BD7047704700B585B0FFF79CF83A
S315080052C0022100A8FDF784FC0098FFF7AEF801F06C
S315080052D097FA002080F31188FBF7F4FF0120FBF70B
S315080052E0F1FF0120FDF772FC0020FDF759FC48B1DB
S315080052F04FF4EE720FF268010FF2D80001F02AFBA4
S31508005300C046C0461420FDF750FCFBF727FBFEF706
S31508005310BBFE0FF2F80101A80B2200F077FC01A9E9
S315080053200A20FFF74DFFFDF74EFC02460FF2181153
S315080053300FF2E400FBF734F90648FBF762FAFBF7CD
S3150800534034FC05B000BD0000EC0400207005002008
S315080053503C090020FD51000846414C534500000019
S31508005360433A5C55736572735C4A6F6E5C446F634F
S31508005370756D656E74735C4D4F5F535F616E645FE8
S31508005380545C437045353137305F52545F537973F7
S3150800539074656D735C4C6162735C6370652D353141
S315080053A037302D6D6F74652D636F64655C50726F51
S315080053B06A656374735C53696D706C654D41435CD3
S315080053C06D6F74655F70726F6A6563745C6D6F7418
S315080053D0652E630053545F526164696F496E697440
S315080053E0282053545F524144494F5F504F57455206
S315080053F05F4D4F44455F52585F4F4E2029203D3D33
S315080054002053545F535543434553530054522E5427
S315080054104553545F310D00000D0A53696D706C6574
S315080054204D414320282573292054616C6B20417017
S31508005430706C69636174696F6E20284555493D250E
S3150800544078290D0A00000000322E302E30524331E2
S3150800545000000000DFF8C40310210163DFF8C01361
S315080054600A6842F001020A60DFF8B81301600122F7
S3150800547002638A31816002210163DFF8AC034FF6CB
S31508005480FF7101607047DFF8A40345F26401C1604B
S315080054901E21416250210162C821C1618165F02146
S315080054A0C16545F690014166882181660621C16677
S315080054B044F2066101604FF6FF714160DFF8700340
S315080054C0007838B1DFF86C0348F2607101604FF478
S315080054D0C1514160DFF86003016841F004010160D1
S315080054E0DFF858030021417070472DE9F843044658
S315080054F0DFF84C538A2000FB045000F2150041786F
S31508005500027802EB012292B202F44041DFF834330A
